:100000000C94DA000C94FE030C94D7030C940201B8
:100010000C9402010C9402010C9402010C94020154
:100020000C9402010C9425040C9402010C9402011E
:100030000C9402010C9402010C9402010C94020134
:100040000C948D030C9402010C94D3020C94AD0219
:100050000C9402010C9402010C9402010C94020114
:100060000C9486040C94020100407A10F35A00A00C
:10007000724E18090010A5D4E80000E87648170071
:1000800000E40B54020000CA9A3B000000E1F505B1
:10009000000080969800000040420F000000A086FB
:1000A00001000000102700000000E803000000002D
:1000B0006400000000000A000000000001000000D1
:1000C00000002C76D888DC674F0823DFC1DFAE59EB
:1000D000E1B1B796E5E3E453C63AE651997696E87E
:1000E000E6C28426EB898C9B62ED407C6FFCEFBC02
:1000F0009C9F40F2BAA56FA5F490055A2AF75C932D
:100100006B6CF9676DC11BFCE0E40D47FEF520E662
:10011000B500D0ED902E0300943577050080841E45
:10012000080000204E0A000000C80C333333330FA0
:10013000986E12831141EF8D2114893BE65516CF3D
:10014000FEE6DB18D1844B381BF77C1D901DA4BB49
:10015000E424203284725E228100C9F124ECA1E5FE
:100160003D2700000000240027002A0000000000B6
:10017000250028002B0004040404040404040202E3
:100180000202020203030303030301020408102016
:100190004080010204081020010204081020000021
:1001A0000008000201000003040700000000000036
:1001B0000000C90B11241FBECFEFD8E0DEBFCDBFBA
:1001C00011E0A0E0B1E0E8EEF6E202C005900D9289
:1001D000AA36B107D9F723E0AAE6B1E001C01D9223
:1001E000AB30B207E1F710E0CAEDD0E004C02197D0
:1001F000FE010E946011C93DD107C9F70E94900716
:100200000C9472130C9400008091080290910902E2
:10021000019690930902809308020895FC01538D82
:10022000448D252F30E0842F90E0821B930B5417D0
:1002300010F0CF96089501970895FC01918D828D5D
:10024000981761F0828DDF01A80FB11D5D968C912A
:10025000928D9F5F9F73928F90E008958FEF9FEF35
:100260000895FC01918D828D981731F0828DE80FF1
:10027000F11D858D90E008958FEF9FEF0895FC01AB
:10028000918D228D892F90E0805C9F4F821B910978
:100290008F739927089586E192E00E943F0121E043
:1002A000892B09F420E0822F0895FC01848DDF0161
:1002B000A80FB11DA35ABF4F2C91848D90E00196D9
:1002C0008F739927848FA689B7892C93A089B189C8
:1002D0008C9180648C93938D848D981306C00288D2
:1002E000F389E02D80818F7D80830895EF92FF92C6
:1002F0000F931F93CF93DF93EC0181E0888F9B8D49
:100300008C8D981305C0E889F989808185FD24C00A
:10031000F62E0B8D10E00F5F1F4F0F731127E02E8D
:100320008C8DE8120CC00FB607FCFACFE889F9896A
:10033000808185FFF5CFCE010E945501F1CF8B8DD5
:10034000FE01E80FF11DE35AFF4FF0820B8FEA899F
:10035000FB898081806207C0EE89FF896083E8891C
:10036000F98980818064808381E090E0DF91CF9182
:100370001F910F91FF90EF900895CF93DF93EC01C1
:10038000888D8823C9F0EA89FB89808185FD05C0B5
:10039000A889B9898C9186FD0FC00FB607FCF5CFEF
:1003A000808185FFF2CFA889B9898C9185FFEDCF37
:1003B000CE010E945501E7CFDF91CF91089580E0F3
:1003C00090E0892B29F00E944B0181110C940000D0
:1003D00008958E3008F08E508770806480937C0082
:1003E00080917A00806480937A0080917A0086FD03
:1003F000FCCF809178002091790090E0922B0895B5
:100400002FB7F8946091E7017091E8018091E901BC
:100410009091EA012FBF0895089585ED8093BC0067
:100420008091BC0084FDFCCF1092B30108954091EF
:100430008D01262F30E0240F311D21323105DCF4EF
:100440002091B3012430C9F4FC0180E090E08617CC
:1004500058F430918D012191DC01A559BE4FA30FB5
:10046000B11D2C930196F3CF80918D01680F60939D
:100470008D0180E0089581E0089582E00895089557
:100480008FEF9FEF08958FEF9FEF089580916A019E
:1004900090E09195819591090895CF93DF9300D0D5
:1004A000CDB7DEB7CB01642F49835A830E94170270
:1004B0004981842F5A81952F0F900F90DF91CF9112
:1004C0000895CF93DF931F92CDB7DEB7698361E0C4
:1004D000CE0101960E94170281E090E00F90DF911B
:1004E000CF910895089580E090E00895CF92DF9233
:1004F000EF92FF920F931F93CF93DF93EC016A016A
:100500007B010E940002088119812A813B816017CA
:1005100071078207930720F4188219821A821B82BE
:10052000088119812A813B81DC01CB01801B910B61
:10053000A20BB30B21E08C159D05AE05BF0508F499
:1005400020E0822FDF91CF911F910F91FF90EF90CC
:10055000DF90CF9008950E945D131F920F920FB607
:100560000F9211242F933F934F935F936F937F9339
:100570008F939F93AF93BF93EF93FF9386E192E0A6
:100580000E945501FF91EF91BF91AF919F918F9183
:100590007F916F915F914F913F912F910F900FBE7F
:1005A0000F901F9018951F920F920FB60F92112463
:1005B0002F938F939F93EF93FF93E0912602F091F7
:1005C00027028081E0912C02F0912D0282FD12C061
:1005D000908180912F028F5F8F732091300282175C
:1005E00051F0E0912F02F0E0EA5EFD4F958F80938D
:1005F0002F0201C08081FF91EF919F918F912F91E8
:100600000F900FBE0F901F90189590E0FC01E256DE
:10061000FE4F3491FC01E657FE4F2491FC01EA584D
:10062000FE4FE491EE2309F43BC0332339F133301C
:1006300091F038F43130A9F0323001F584B58F7D76
:1006400012C0373091F03830A1F03430B9F48091D5
:1006500080008F7D03C0809180008F778093800021
:100660000DC084B58F7784BD09C08091B0008F77AD
:1006700003C08091B0008F7D8093B000F0E0EE0F5A
:10068000FF1FE459FE4FA591B4918FB7F894EC91F8
:10069000611103C020952E2301C02E2B2C938FBFF8
:1006A0000895CF93DF9390E0FC01E657FE4F24912D
:1006B000FC01EA58FE4F8491882361F190E0880F95
:1006C000991FFC01EE59FE4FC591D491FC01E459EC
:1006D000FE4FA591B491611109C09FB7F89488812C
:1006E000209582238883EC912E230BC0623061F425
:1006F0009FB7F8943881822F809583238883EC916B
:100700002E2B2C939FBF06C08FB7F894E8812E2B19
:1007100028838FBFDF91CF9108951F920F920FB65C
:100720000F9211242F933F938F939F93AF93BF9377
:100730008091E7019091E801A091E901B091EA016F
:100740003091E60123E0230F2D3720F40196A11DFF
:10075000B11D05C026E8230F0296A11DB11D2093EF
:10076000E6018093E7019093E801A093E901B0933B
:10077000EA018091E2019091E301A091E401B0913E
:10078000E5010196A11DB11D8093E2019093E30163
:10079000A093E401B093E501BF91AF919F918F9138
:1007A0003F912F910F900FBE0F901F9018951F92A1
:1007B0000F920FB60F9211242F933F934F935F9395
:1007C0006F937F938F939F93AF93BF93EF93FF9319
:1007D000E0910201F09103010995FF91EF91BF9122
:1007E000AF919F918F917F916F915F914F913F91C9
:1007F0002F910F900FBE0F901F9018951F920F9280
:100800000FB60F9211242F933F934F935F936F93E3
:100810007F938F939F93AF93BF93EF93FF93E09159
:100820000001F09101010995FF91EF91BF91AF9106
:100830009F918F917F916F915F914F913F912F91F8
:100840000F900FBE0F901F9018951F920F920FB62A
:100850000F9211242F933F934F935F936F937F9346
:100860008F939F93AF93BF93EF93FF938091E0019A
:100870009091E1018093B2008091DC019091DD01C3
:10088000A091DE01B091DF010196A11DB11D809301
:10089000DC019093DD01A093DE01B093DF01809134
:1008A000DC019091DD01A091DE01B091DF0180912A
:1008B000DB0181111AC081E08093DB018091DC01B2
:1008C0009091DD01A091DE01B091DF018093DC0108
:1008D0009093DD01A093DE01B093DF01E091D90197
:1008E000F091DA0109951092DB01FF91EF91BF9130
:1008F000AF919F918F917F916F915F914F913F91B8
:100900002F910F900FBE0F901F9018951F920F926E
:100910000FB60F9211242F933F934F935F936F93D2
:100920007F938F939F93AF93BF93EF93FF938091A8
:10093000B900887F803609F49CC068F5883209F4D4
:100940005BC090F4803109F454C038F4882309F472
:10095000F6C0883009F44DC0F6C0883109F44CC0A7
:10096000803209F45DC0EFC0803409F468C048F4F7
:10097000803309F455C0883309F0E5C08093B20193
:10098000D8C0803509F44FC0883509F45DC088347B
:1009900009F0D9C0D6C0883909F4C7C0A8F488378F
:1009A00009F467C038F4883609F463C0803709F465
:1009B00060C0C9C0883809F4B8C0803909F45FC084
:1009C000803809F0C0C05BC0803B09F486C038F4B1
:1009D000803A09F466C0883A09F47FC0B4C0803C0C
:1009E00009F4A7C0883C09F4A4C0883B09F48AC074
:1009F000AAC08091D80110C09091D7018091D601F2
:100A0000981770F5E091D70181E08E0F8093D701A0
:100A1000F0E0EA54FE4F80818093BB0085EC86C0F5
:100A20008093B2018EC0E091D70181E08E0F809358
:100A3000D7018091BB00F0E0EA54FE4F8083909193
:100A4000D7018091D6016EC0E091D70181E08E0F71
:100A50008093D7018091BB00F0E0EA54FE4F808381
:100A60008091B50181116DC081E08093B40184EA69
:100A700061C083E08093B3011092B101CFCF809128
:100A8000B101803208F051C0E091B10181E08E0FD8
:100A90008093B1018091BB00F0E0EF56FE4F808360
:100AA000BDCF85EC8093BC001092B3018091B10161
:100AB000803230F4E091B101F0E0EF56FE4F108249
:100AC0006091B10170E0E0918F01F091900181E9B6
:100AD00091E009951092B10136C084E08093B30192
:100AE00010928E0110928D01E0918B01F0918C019A
:100AF000099580918D01811105C081E080938D0160
:100B000010926B01E0918E0181E08E0F80938E0137
:100B1000F0E0E559FE4F80818093BB0090918E01FB
:100B200080918D01981708F479CF85E88093BC00F7
:100B30000AC085EC8093BC001092B30104C01092EF
:100B4000B2010E940D02FF91EF91BF91AF919F9171
:100B50008F917F916F915F914F913F912F910F9066
:100B60000FBE0F901F901895CF92DF92EF92FF92D9
:100B70000F931F93CF93DF936C017A018B01C0E039
:100B8000D0E0CE15DF0589F0D8016D918D01D60139
:100B9000ED91FC910190F081E02DC6010995892B22
:100BA00011F47E0102C02196ECCFC701DF91CF91F5
:100BB0001F910F91FF90EF90DF90CF9008950F93CA
:100BC0001F93CF93DF93EC0188819981009729F0DF
:100BD0002A813B812617370788F48B016F5F7F4F8F
:100BE0000E949312009761F0998388831B830A8384
:100BF0002C813D81232B11F4FC01108281E001C086
:100C000080E0DF91CF911F910F910895E6E1F2E02E
:100C1000A089B18982E08C93A485B5851C92A685B4
:100C2000B78580E18C93108EA489B58986E08C937A
:100C3000A289B3898C9180618C93A289B3898C91AC
:100C400088608C93A289B3898C9180688C93028888
:100C5000F389E02D80818F7D80830895CF93C82F05
:100C600061E00E945103EC2FF0E0E256FE4FE49168
:100C7000E33019F150F4E130D1F0E230E1F584B520
:100C8000806284BD80E888BD3BC0E73011F1E83068
:100C900049F1E43081F5809180008062809380008A
:100CA00080E890E090938B0080938A0029C084B5FF
:100CB000806884BD80E887BD23C080918000806803
:100CC0008093800080E890E0909389008093880072
:100CD00017C08091B00080688093B00080E8809356
:100CE000B3000EC08091B00080628093B00080E8B5
:100CF0008093B40005C061E08C2FCF910C94050364
:100D0000CF910895EF92FF920F931F93CF93DF93AC
:100D1000FC01248135816115710511F480E019C051
:100D200041155105A9F07B01EC018A01020F131F47
:100D3000B8010E94DF05882389F3288139818C81DD
:100D40009D81B701820F931F0E946B131D830C833B
:100D500081E0DF91CF911F910F91FF90EF90089567
:100D6000EF92FF920F931F93CF93DF93CDB7DEB730
:100D700064970FB6F894DEBF0FBECDBF7C01CB01E8
:100D8000BA018E010F5F1F4F22E044E00E94140C55
:100D9000BC01FC0101900020E9F73197AF01481B2D
:100DA000590BC7010E94820664960FB6F894DEBF05
:100DB0000FBECDBFDF91CF911F910F91FF90EF90AC
:100DC00008956115710551F0FB0101900020E9F7CC
:100DD0003197AF01461B570B0C94820680E00895B3
:100DE000EF92FF920F931F93CF93DF93EC017B0160
:100DF0008A01BA010E94DF052881398181110DC065
:100E00002115310519F0C9010E94FB1119821882C0
:100E10001D821C821B821A8206C01D830C83B701AF
:100E2000C9010E946B13CE01DF91CF911F910F91E9
:100E3000FF90EF9008956115710579F0FB01019025
:100E40000020E9F73197AF01461B570BDC01ED910C
:100E5000FC910280F381E02D099480E090E00895F8
:100E6000CF93DF93FC01448155816081718186E1DC
:100E700092E00E94B405EC016DE371E086E192E03E
:100E80000E941B078C0F9D1FDF91CF9108954F92F9
:100E90005F926F927F92EF92FF920F931F93CF9387
:100EA000DF93CDB7DEB7A1970FB6F894DEBF0FBEC4
:100EB000CDBF7C01FA01CB0119A2223008F42AE04F
:100EC0008E010F5D1F4F422E512C612C712CBF01E2
:100ED000A30192010E94EE0FF901CA01015011090C
:100EE0006A3014F4605D01C0695CD8016C93232BF7
:100EF000242B252B61F7B801C7010E941B07A1967F
:100F00000FB6F894DEBF0FBECDBFDF91CF911F911A
:100F10000F91FF90EF907F906F905F904F900895AA
:100F2000CF93DF93CDB7DEB76E970FB6F894DEBFE1
:100F30000FBECDBF789484B5826084BD84B58160D6
:100F400084BD85B5826085BD85B5816085BD809194
:100F50006E00816080936E0010928100809181000C
:100F60008260809381008091810081608093810004
:100F7000809180008160809380008091B1008460C6
:100F80008093B1008091B00081608093B000809127
:100F90007A00846080937A0080917A0082608093E6
:100FA0007A0080917A00816080937A0080917A0043
:100FB000806880937A001092C1001092F70210921C
:100FC000F8021092F9021092FA021092B5021092F1
:100FD000B6021092B7021092B8020E9400026B0192
:100FE0007C014B015C0128EB820E2BE0921EA11CC0
:100FF000B11C0E9400026C157D058E059F0528F02E
:1010000086169706A806B906A0F786E192E09093A7
:10101000F6028093F5020E9406060E940002609389
:10102000B5027093B6028093B7029093B8026EE255
:1010300071E08091F5029091F6020E941B070E94D8
:1010400000026B017C014B015C013AE0830E911CB4
:10105000A11CB11C0E9400026C157D058E059F0528
:1010600028F086169706A806B906A0F781E08093B7
:10107000C90261E08DE00E94510362E083E00E94BA
:10108000510384E091E090930301809302018091E9
:101090006900837F886080936900E99A61E084E059
:1010A0000E94510361E085E00E94510361E086E007
:1010B0000E94510361E087E00E94510361E088E0F3
:1010C0000E94510361E089E00E94510361E08AE0DF
:1010D0000E94510361E08BE00E94510361E08CE0CB
:1010E0000E94510361E084E00E94050360E085E016
:1010F0000E94050360E087E00E94050360E088E04D
:101100000E94050360E08BE00E94050361E08CE033
:101110000E9405030E940606CC24C394D12C412CC6
:1011200094E0592E612C712CAE014F5F5F4F7A0114
:101130000E940002672B682B692B41F40E94000279
:10114000623071058105910508F41EC10E940002FC
:10115000609312027093130280931402909315020D
:1011600000910E0210910F02209110023091110295
:10117000601771078207930740F460930E02709323
:101180000F02809310029093110200910E021091B1
:101190000F0220911002309111024B015C01801A64
:1011A000910AA20AB30A950184010A3F110521059B
:1011B000310508F4E9C060930E0270930F0280932A
:1011C00010029093110224EF31E040E050E02093B0
:1011D000C1023093C2024093C3025093C4021092E2
:1011E000C5021092C6021092C7021092C8028091E6
:1011F000B9029091BA02A091BB02B091BC02809357
:10120000BD029093BE02A093BF02B093C0020E94A1
:1012100000026093B9027093BA028093BB0290936C
:10122000BC020E9400026093B5027093B6028093E4
:10123000B7029093B8020E9400024B015C0160E487
:1012400071E08091F5029091F6020E941B072AE05E
:1012500041E050E060E070E08091F5029091F6028C
:101260000E94470767E471E08091F5029091F602D1
:101270000E941B072AE0B501A4018091F50290911C
:10128000F6020E94470769E471E08091F5029091AF
:10129000F6020E941B078091B9029091BA02A091B8
:1012A000BB02B091BC02B501A401481B590B6A0BEB
:1012B0007B0B2AE08091F5029091F6020E9447078D
:1012C00069E471E08091F5029091F6020E941B079B
:1012D0004091B9025091BA026091BB027091BC0278
:1012E0008091BD029091BE02A091BF02B091C00258
:1012F000481B590B6A0B7B0B2AE08091F5029091F9
:10130000F6020E9447076BE471E08091F50290912C
:10131000F6020E941B070E940002AB01BC012AE0FA
:101320008091F5029091F6020E9447070091F50224
:101330001091F6026DE471E0C8010E941B076DE395
:1013400071E0C8010E941B070E9400024B015C0172
:101350009B01AC012B5F3F4F4F4F5F4F2B8F3C8F5B
:101360004D8F5E8F0E940002681579058A059B05E6
:1013700008F0FCC10E9400026093B9027093BA02A7
:101380008093BB029093BC021E8A1D8A188E1F8A0E
:101390001A8E198E40E050E06FE371E0CE01459661
:1013A0000E94F00648E750E060E070E08AE092E0DA
:1013B0000E9476028823B9F0809108029091090278
:1013C00008973CF0D0920702C092060286E00E9485
:1013D0002E060E94000260930A0270930B02809313
:1013E0000C0290930D0244E650E060E070E082E071
:1013F00092E00E947602882309F4B7C08EE00E9432
:10140000E9015C018FE00E94E9018C0128E833E1E9
:10141000D5010E945911A30192010E941010B90137
:10142000330F880B990B0E94D10E4B015C0128E809
:1014300033E1D8010E945911A30192010E941010BA
:10144000B901330F880B990B0E94D10E9B01AC019F
:10145000C501B4010E94E2102DEC3CEC4CEC5DE3C4
:101460000E94751020E030E040E45FE30E94E2104B
:1014700020E030E040E251E40E94300F4B015C017B
:101480002091FE013091FF01409100025091010234
:101490000E94541118166CF41092FD011092FC0178
:1014A0008092F8019092F901A092FA01B092FB01AA
:1014B0004AC00091FC011091FD010115110551F484
:1014C0000E9400026093F4017093F5018093F6018D
:1014D0009093F7010F5F1F4F1093FD010093FC01E4
:1014E000A50194016091F8017091F9018091FA01D0
:1014F0009091FB010E94751023E333E343EB5EE31D
:101500000E94541187FD1FC080910602909107022E
:10151000892BC9F402301105B4F00E940002009139
:10152000F4011091F5012091F6013091F701DC01F1
:10153000CB01801B910BA20BB30B8C3D9540A105F9
:10154000B10508F41EC18092FE019092FF01A092A5
:101550000002B09201020E940002609302027093A6
:1015600003028093040290930502809106029091F9
:101570000702019771F50E9400020091EC011091A1
:10158000ED012091EE013091EF01DC01CB01801BD8
:10159000910BA20BB30B2091EB01211112C061E062
:1015A0008AE00E9405030E9400026093EC017093A0
:1015B000ED018093EE019093EF0181E08093EB01C8
:1015C0002BC080349747AB41B10530F160E08AE031
:1015D00021C00E9400020091EC011091ED012091C8
:1015E000EE013091EF01DC01CB01801B910BA20BCE
:1015F000B30B1092EB018C3D9540A105B10560F055
:1016000060E08AE00E94050360E089E00E94050333
:1016100060E086E00E94050348EE53E060E070E081
:1016200080EF91E00E947602882309F498C000912F
:101630000802109109020830110524F410920702E3
:101640001092060264E571E0CE0145960E94E10623
:10165000B801110F880B990B0E94D10E2AE939E9C4
:1016600041E051E40E94E210870122E044E00E9440
:10167000140CFC0101900020E9F73197AF01481BE1
:10168000590BBC01CE0145960E94820669E571E0C6
:10169000CE0145960E94E1066EE571E0CE014596C9
:1016A0000E94E1064AE0B701809108029091090288
:1016B0000E94340CF70101900020E9F73197AF0147
:1016C0004E195F09B701CE0145960E9482066BE56F
:1016D00071E0CE0145960E94E106CE0145960E943A
:1016E0003007109209021092080244E050E060E6D0
:1016F00071E0CE0145960E94F0064091FE015091A6
:10170000FF016091000270910102CE0145960E9496
:10171000B0066EE571E0CE0145960E94E10640916B
:10172000F8015091F9016091FA017091FB01CE012D
:1017300045960E94B00665E671E0CE0145960E948E
:10174000E106CE0145960E9430070E940002609398
:10175000F0017093F1018093F2019093F3018D8970
:101760009E890E94FB110E94DF01E2CC2B8D3C8DF3
:101770004D8D5E8D261737074807590708F0F2CDC3
:10178000F9CDD0920702C092060289E00E942E068F
:10179000DACEE6E1F2E01382128288EE93E0A0E076
:1017A000B0E084839583A683B7832EE031E0318354
:1017B000208325EC30E03587248724EC30E0378720
:1017C000268720EC30E0318B208B21EC30E0338B0E
:1017D000228B22EC30E0358B248B26EC30E0378BEB
:1017E000268B118E128E138E148EE3EBF2E016828E
:1017F0001782108611861286138614861586168621
:101800001786108A118A128A138A148A158AEBEFB6
:10181000F2E01382128284839583A683B78380E2E9
:1018200091E0918380830895EF920F931F93CF935C
:10183000DF93E80147FD02C034E001C034E1E42F4A
:10184000440FFF0BF7FF03C0F195E195F109E32E7B
:10185000022F2E2FAE010E94590CCE01DF91CF91A5
:101860001F910F91EF900895BB274A3031F49923CF
:1018700022F4BDE2909581959F4F0C94400CBB27BC
:10188000FB015527AA27880F991FAA1FA41710F03C
:10189000A41B83955051B9F7A05DAA3308F0A95D48
:1018A000A193009779F7B111B1931192CB010C94E8
:1018B000BF0E4F925F926F927F929F92AF92BF92B4
:1018C000CF92DF92EF92FF920F931F93CF93DF930C
:1018D000CDB7DEB729970FB6F894DEBF0FBECDBFE8
:1018E0006A01122FB02E2BE3201720F0FF24F3946F
:1018F000F00E02C0BCE3FB2E0F2D27E0AE014F5FC0
:101900005F4F0E94E70DAC018981982F997091304B
:1019100031F0E1FC06C0E0FE06C090E205C09DE2A9
:1019200003C09BE201C090E0EE2DE07183FF3CC05C
:10193000911102C083E001C084E0811718F4212FC7
:10194000281B01C020E0E1110BC0F601822F30E21C
:10195000882319F031938150FBCFC20ED11C20E0B7
:10196000992329F0D6019C93F60131966F01C601A7
:101970000396E2FE0AC03EE4D6013C9341E4119690
:101980004C93119712963C9306C03EE6F6013083C5
:1019900041E641833283FC01322F40E2332309F4D4
:1019A00042C041933150FACF82FF44C0911102C02E
:1019B00083E001C084E0811718F4212F281B01C0A7
:1019C00020E0E1110BC0F601822F30E2882319F0EC
:1019D00031938150FBCFC20ED11C20E0992329F016
:1019E000D6019C93F60131966F01C6010396E2FE83
:1019F0000BC039E4D6013C933EE411963C93119719
:101A000036E412963C9307C039E6F60130833EE691
:101A1000318336E63283FC01322F40E2332319F062
:101A200041933150FBCFFC01E20FF11D10828EEF8C
:101A30009FEFB7C0F1E0911101C0F0E06F2F70E0AF
:101A40001416150624F49A012F5F3F4F02C021E0BF
:101A500030E0260F371FBB2029F06B2D70E06F5F41
:101A60007F4F02C060E070E0260F371F612F70E0EB
:101A7000261737071CF4121B212F01C020E03E2D32
:101A8000387159F4D601322F60E2332319F06D9387
:101A90003150FBCFC20ED11C20E0FF2331F0D60124
:101AA0009C93B6016F5F7F4F6B01E1110BC0F60194
:101AB000922F30E3992319F031939150FBCFC20E4E
:101AC000D11C20E09F2D940F3A81782F7071A72EA2
:101AD00084FF03C0313309F49150191624F499306E
:101AE00018F098E001C091E0E42F852F57FF02C065
:101AF000E0E080E06E2F782FE0E0F0E0AEE29A2E9A
:101B00003A01691A71082A01461A570A0B2D10E08A
:101B10001195019511096F3F8FEF780729F4D601D0
:101B20009C92C60101966C014617570784F0661611
:101B300077066CF47F01E40CF51CA1E0B0E0AC0F7B
:101B4000BD1FEA0EFB1ED7011196BC9002C090E3A8
:101B5000B92E615071093196C60101967C0160175A
:101B6000710724F0D601BC926C01D5CF64177507BC
:101B700041F4363320F4353321F4A11002C081E35F
:101B8000B82EF601B082F701822F90E2882319F077
:101B900091938150FBCFF701E20FF11D108280E09D
:101BA00090E029960FB6F894DEBF0FBECDBFDF914F
:101BB000CF911F910F91FF90EF90DF90CF90BF904A
:101BC000AF909F907F906F905F904F9008952830D6
:101BD00008F027E03327DA01990F311D87FD916066
:101BE00000966105710539F432602E5F3D9330E354
:101BF0002A95E1F708959F3F30F08038710561051F
:101C000009F03C5F3C5F3D93913008F08068911D86
:101C1000DF93CF931F930F93FF92EF92192F987F2B
:101C20009695E92F96959695E90FFF27EE53FF4F6E
:101C300099273327EE24FF24A701E7010590089494
:101C4000079428F4360FE71EF81E491F511D660F32
:101C5000771F881F991F0694A1F70590079428F411
:101C6000E70EF81E491F561FC11D770F881F991FC9
:101C7000661F0694A1F70590079428F4F80E491FF3
:101C8000561FC71FD11D880F991F661F771F069407
:101C9000A1F70590079420F4490F561FC71FD81FBE
:101CA000990F661F771F881F0694A9F784911095D6
:101CB000177041F0D695C79557954795F794E794D7
:101CC0001A95C1F7E8E6F0E0689415901591359102
:101CD0006591959105907FE27395E118F10A430BA8
:101CE000560BC90BD009C0F7E10CF11E431F561F5C
:101CF000C91FD01D7EF4703311F48A95E6CFE894A5
:101D0000015030F0080F0AF40027021708F4202FC2
:101D10002395022F7A3328F079E37D932A95E9F70A
:101D200010C07D932A9589F6069497956795379507
:101D300017951794E118F10A430B560BC90BD009FC
:101D400098F023957E9173957A3308F070E37C9335
:101D50002013B8F77E9170617D9330F0839571E325
:101D60007D9370E32A95E1F71124EF90FF900F9196
:101D70001F91CF91DF91992787FD90950895DC0100
:101D8000FC01672F71917723E1F7329704C07C91B2
:101D90006D9370836291AE17BF07C8F30895E894FE
:101DA00009C097FB3EF490958095709561957F4FA3
:101DB0008F4F9F4F9923A9F0F92F96E9BB27939551
:101DC000F695879577956795B795F111F8CFFAF461
:101DD000BB0F11F460FF1BC06F5F7F4F8F4F9F4F92
:101DE00016C0882311F096E911C0772321F09EE8F0
:101DF000872F762F05C0662371F096E8862F70E056
:101E000060E02AF09A95660F771F881FDAF7880F2F
:101E10009695879597F90895990F0008550FAA0B85
:101E2000E0E8FEEF16161706E807F907C0F01216ED
:101E30001306E407F50798F0621B730B840B950BF0
:101E400039F40A2661F0232B242B252B21F4089545
:101E50000A2609F4A140A6958FEF811D811D0895E2
:101E60000E94430F0C94B40F0E94A60F38F00E94FA
:101E7000AD0F20F0952311F00C949D0F0C94A30F3F
:101E800011240C94E80F0E94C50F70F3959FC1F3C5
:101E9000950F50E0551F629FF001729FBB27F00D18
:101EA000B11D639FAA27F00DB11DAA1F649F66276D
:101EB000B00DA11D661F829F2227B00DA11D621FBC
:101EC000739FB00DA11D621F839FA00D611D221F76
:101ED000749F3327A00D611D231F849F600D211D5A
:101EE000822F762F6A2F11249F5750409AF0F1F0DD
:101EF00088234AF0EE0FFF1FBB1F661F771F881F46
:101F000091505040A9F79E3F510580F00C949D0FD1
:101F10000C94E80F5F3FE4F3983ED4F386957795F1
:101F20006795B795F795E7959F5FC1F7FE2B880FEB
:101F3000911D9695879597F9089597F99F6780E881
:101F400070E060E008959FEF80EC089500240A940B
:101F50001616170618060906089500240A94121684
:101F60001306140605060895092E0394000C11F4B7
:101F7000882352F0BB0F40F4BF2B11F460FF04C064
:101F80006F5F7F4F8F4F9F4F089557FD9058440FBD
:101F9000551F59F05F3F71F04795880F97FB991FC8
:101FA00061F09F3F79F08795089512161306140685
:101FB000551FF2CF4695F1DF08C016161706180612
:101FC000991FF1CF86957105610508940895E894ED
:101FD000BB2766277727CB0197F90895A1E21A2E30
:101FE000AA1BBB1BFD010DC0AA1FBB1FEE1FFF1FBD
:101FF000A217B307E407F50720F0A21BB30BE40B0D
:10200000F50B661F771F881F991F1A9469F7609553
:102010007095809590959B01AC01BD01CF0108950D
:10202000052E97FB1EF400940E94271057FD07D041
:102030000E94EE0F07FC03D04EF40C94271050952D
:102040004095309521953F4F4F4F5F4F08959095A4
:102050008095709561957F4F8F4F9F4F08952F9278
:102060003F924F925F926F927F928F929F92AF9228
:10207000BF92CF92DF92EF92FF920F931F93CF9375
:10208000DF93CDB7DEB7CA1BDB0B0FB6F894DEBF0C
:102090000FBECDBF09942A88398848885F846E8432
:1020A0007D848C849B84AA84B984C884DF80EE807C
:1020B000FD800C811B81AA81B981CE0FD11D0FB685
:1020C000F894DEBF0FBECDBFED010895A29FB00111
:1020D000B39FC001A39F700D811D1124911DB29F5C
:1020E000700D811D1124911D08955058BB27AA27FA
:1020F0000E948D100C94B40F0E94A60F38F00E941D
:10210000AD0F20F039F49F3F19F426F40C94A30F7F
:102110000EF4E095E7FB0C949D0FE92F0E94C50F8C
:1021200058F3BA17620773078407950720F079F40C
:10213000A6F50C94E70F0EF4E0950B2EBA2FA02D08
:102140000B01B90190010C01CA01A0011124FF2764
:10215000591B99F0593F50F4503E68F11A16F0405F
:10216000A22F232F342F4427585FF3CF469537955E
:102170002795A795F0405395C9F77EF41F16BA0B23
:10218000620B730B840BBAF09150A1F0FF0FBB1FD1
:10219000661F771F881FC2F70EC0BA0F621F731F1A
:1021A000841F48F4879577956795B795F7959E3F77
:1021B00008F0B0CF9395880F08F09927EE0F979508
:1021C000879508950E94F6100C94B40F0E94AD0FED
:1021D00058F00E94A60F40F029F45F3F29F00C94BC
:1021E0009D0F51110C94E80F0C94A30F0E94C50F82
:1021F00068F39923B1F3552391F3951B550BBB2736
:10220000AA2762177307840738F09F5F5F4F220F7A
:10221000331F441FAA1FA9F335D00E2E3AF0E0E871
:1022200032D091505040E695001CCAF72BD0FE2FBB
:1022300029D0660F771F881FBB1F2617370748074F
:10224000AB07B0E809F0BB0B802DBF01FF27935807
:102250005F4F3AF09E3F510578F00C949D0F0C941F
:10226000E80F5F3FE4F3983ED4F386957795679542
:10227000B795F7959F5FC9F7880F911D969587953C
:1022800097F90895E1E0660F771F881FBB1F62175B
:1022900073078407BA0720F0621B730B840BBA0B19
:1022A000EE1F88F7E09508950E940C0F08F48FEF59
:1022B00008950E946610B7FF0895821B930B08953E
:1022C000EE0FFF1F0590F491E02D0994CF93DF935B
:1022D0008230910510F482E090E0E0910903F091E2
:1022E0000A0320E030E0C0E0D0E0309711F14081F7
:1022F000518148175907C0F04817590761F4828186
:102300009381209719F09B838A832BC090930A03B3
:102310008093090326C02115310519F04217530790
:1023200018F49A01BE01DF01EF010280F381E02D74
:10233000DCCF2115310509F1281B390B243031057B
:1023400090F412968D919C9113976115710521F06F
:10235000FB019383828304C090930A038093090353
:10236000FD01329644C0FD01E20FF31F819391936A
:10237000225031092D933C933AC0209107033091AC
:102380000803232B41F4209106013091070130937B
:1023900008032093070320910401309105012115C2
:1023A000310541F42DB73EB7409108015091090124
:1023B000241B350BE0910703F0910803E217F307A4
:1023C000A0F42E1B3F0B2817390778F0AC014E5FA5
:1023D0005F4F2417350748F04E0F5F1F50930803D7
:1023E000409307038193919302C0E0E0F0E0CF01B6
:1023F000DF91CF9108950F931F93CF93DF930097B1
:1024000009F48CC0FC0132971382128200910903F7
:1024100010910A030115110581F420813181820F89
:10242000931F20910703309108032817390779F586
:10243000F0930803E093070371C0D80140E050E037
:10244000AE17BF0750F412962D913C911397AD0132
:102450002115310509F1D901F3CF9D01DA0133834B
:10246000228360817181860F971F8217930769F419
:10247000EC0128813981260F371F2E5F3F4F3183B2
:1024800020838A819B8193838283452B29F4F09357
:102490000A03E093090342C01396FC93EE9312974C
:1024A000ED01499159919E01240F351FE217F30761
:1024B00071F480819181840F951F029611969C93EF
:1024C0008E938281938113969C938E931297E0E072
:1024D000F0E0D80112968D919C911397009719F016
:1024E000F8018C01F6CF8D919C9198012E5F3F4FA2
:1024F000820F931F20910703309108032817390793
:1025000069F4309729F410920A031092090302C06B
:10251000138212821093080300930703DF91CF9177
:102520001F910F910895A0E0B0E0E9E9F2E10C9469
:102530003310EC01009721F4CB010E946611B8C062
:10254000FC01E60FF71F9C0122503109E217F30747
:1025500008F4ACC0D9010D911C911197061717070B
:10256000B0F00530110508F49FC0C8010497861724
:10257000970708F499C002501109061B170B019325
:1025800011936D937C93CF010E94FB118DC05B0171
:10259000A01AB10A4C01800E911EA0910903B091BE
:1025A0000A0340E050E0E12CF12C109709F44AC0F6
:1025B000A815B905D1F56D907C901197630182E063
:1025C000C80ED11CCA14DB0480F1A3014A195B09AF
:1025D0006A0182E0C80ED11C1296BC901297139625
:1025E000AC91B5E0CB16D10440F0B282A383518305
:1025F0004083D9016D937C930AC00E5F1F4FC301C6
:10260000800F911FF90191838083EB2DFA2FE11444
:10261000F10431F0D7011396FC93EE93129744C066
:10262000F0930A03E09309033FC08D919C911197A9
:102630004817590708F4AC017D0112960D90BC9122
:10264000A02DB3CF809107039091080388159905B9
:10265000E1F446175707C8F48091040190910501F1
:10266000009741F48DB79EB7409108015091090140
:10267000841B950BE817F907C8F4F0930803E0935F
:102680000703F901718360830FC0CB010E946611BB
:102690007C01009759F0A801BE010E946213CE018F
:1026A0000E94FB11C70104C0CE0102C080E090E08F
:1026B000CDB7DEB7EEE00C944F1081E090E0F894D7
:1026C0000C947213FB01DC0102C001900D92415089
:1026D0005040D8F70895FB01DC0101900D920020D5
:0826E000E1F70895F894FFCF23
:1026E8000C020C0200000B038000000000007601C1
:1026F800B4050E01BD013F011D01310100000000BC
:1027080061024D0273023F02460243024002564DE7
:102718004450565F317C315F564D4450560D0A0087
:10272800564D4450455F003A323A007C005F564DA2
:1027380044504500464C573A004C002020202000C9
:0A2748005052453A004D20200000D9
:107800000C94343C0C94513C0C94513C0C94513CE1
:107810000C94513C0C94513C0C94513C0C94513CB4
:107820000C94513C0C94513C0C94513C0C94513CA4
:107830000C94513C0C94513C0C94513C0C94513C94
:107840000C94513C0C94513C0C94513C0C94513C84
:107850000C94513C0C94513C0C94513C0C94513C74
:107860000C94513C0C94513C11241FBECFEFD8E036
:10787000DEBFCDBF11E0A0E0B1E0ECE9FFE702C060
:1078800005900D92A230B107D9F712E0A2E0B1E065
:1078900001C01D92AD30B107E1F70E942D3D0C945F
:1078A000CC3F0C94003C982F959595959595959582
:1078B000905D8F708A307CF0282F295A8091C0000B
:1078C00085FFFCCF9093C6008091C00085FFFCCF60
:1078D0002093C6000895282F205DF0CF982F809127
:1078E000C00085FFFCCF9093C6000895EF92FF92F1
:1078F0000F931F93EE24FF2487018091C00087FD22
:1079000017C00894E11CF11C011D111D81E4E8164B
:1079100082E4F8068FE0080780E0180770F3E09132
:107920000401F091050109958091C00087FFE9CF1E
:107930008091C6001F910F91FF90EF9008950E94D3
:10794000763C982F8091C00085FFFCCF9093C600B5
:1079500091362CF490330CF09053892F089597555D
:10796000892F08951F930E949F3C182F0E949F3CCF
:107970001295107F810F1F9108951F93182F882350
:1079800021F00E94763C1150E1F71F9108951F935A
:10799000182F0E94763C803249F0809103018F5F5E
:1079A000809303018530C1F01F9108958091C0003C
:1079B00085FFFCCF84E18093C6008091C00085FFE5
:1079C000FCCF1093C6008091C00085FFFCCF80E102
:1079D0008093C6001F910895E0910401F091050184
:1079E00009951F9108950E94763C803241F0809164
:1079F00003018F5F80930301853081F008958091AA
:107A0000C00085FFFCCF84E18093C6008091C00058
:107A100085FFFCCF80E18093C6000895E0910401CA
:107A2000F09105010995089540E951E08823A1F0FE
:107A30002D9A28EE33E0FA013197F1F721503040CA
:107A4000D1F72D9828EE33E0FA013197F1F7215064
:107A50003040D1F7815061F708953F924F925F9285
:107A60006F927F928F929F92AF92BF92CF92DF924E
:107A7000EF92FF920F931F93CF93DF93000080E16B
:107A80008093C4001092C50088E18093C10086E015
:107A90008093C2005098589A259A81E00E94143D24
:107AA00024E1F22E9EE1E92E85E9D82E0FE0C02ECA
:107AB00010E1B12EAA24A394B1E49B2EA6E58A2E50
:107AC000F2E57F2EE0E26E2E79E4572E63E5462E36
:107AD00050E5352E0E94763C8033B1F18133B9F107
:107AE000803409F46FC0813409F476C0823409F41B
:107AF00085C0853409F488C0803531F1823521F1A3
:107B0000813511F1853509F485C0863509F48DC0BC
:107B1000843609F496C0843709F403C1853709F423
:107B200072C1863709F466C0809103018F5F80932C
:107B30000301853079F6E0910401F0910501099582
:107B40000E94763C803351F60E94F33CC3CF0E94E2
:107B5000763C803249F78091C00085FFFCCFF092DF
:107B6000C6008091C00085FFFCCF9092C600809136
:107B7000C00085FFFCCF8092C6008091C00085FFC9
:107B8000FCCF7092C6008091C00085FFFCCF609250
:107B9000C6008091C00085FFFCCF5092C600809146
:107BA000C00085FFFCCF4092C6008091C00085FFD9
:107BB000FCCF3092C6008091C00085FFFCCFB09210
:107BC000C60088CF0E94763C863808F4BDCF0E945C
:107BD000763C0E94F33C7ECF0E94763C803809F4CC
:107BE0009CC0813809F40BC1823809F43CC1883942
:107BF00009F48FC080E00E94C73C6CCF84E10E94F2
:107C0000BD3C0E94F33C66CF85E00E94BD3C0E94D3
:107C1000F33C60CF0E94763C809306010E94763C44
:107C2000809307010E94F33C55CF0E94763C80333D
:107C300009F41DC183E00E94BD3C80E00E94C73C66
:107C400049CF0E94763C809309020E94763C809343
:107C5000080280910C028E7F80930C020E94763C79
:107C6000853409F415C18091080290910902892B8D
:107C700089F000E010E00E94763CF801E85FFE4FDA
:107C800080830F5F1F4F80910802909109020817AF
:107C9000190788F30E94763C803209F045CF809125
:107CA0000C0280FF01C16091060170910701660F0F
:107CB000771F7093070160930601A0910802B091AD
:107CC00009021097C9F0E8E0F1E09B01AD014E0F09
:107CD0005F1FF999FECF32BD21BD819180BDFA9A17
:107CE000F99A2F5F3F4FE417F50799F76A0F7B1F4B
:107CF00070930701609306018091C00085FFFCCF5F
:107D0000F092C6008091C00085FFFCCFB092C60003
:107D1000E1CE83E00E94C73CDDCE82E00E94C73CFA
:107D2000D9CE0E94763C809309020E94763C8093D3
:107D300008028091060190910701880F991F909386
:107D40000701809306010E94763C853409F4A6C0A1
:107D500080910C028E7F80930C020E94763C8032D0
:107D600009F0B8CE8091C00085FFFCCFF092C6002C
:107D7000609108027091090261157105B9F140E046
:107D800050E080910C02A82FA170B82FB27011C0E2
:107D9000BB2309F45CC0E0910601F0910701319624
:107DA000F0930701E09306014F5F5F4F46175707B7
:107DB000E8F4AA2369F3F999FECF209106013091E6
:107DC000070132BD21BDF89A90B58091C00085FFB2
:107DD000FCCF9093C6002F5F3F4F30930701209355
:107DE00006014F5F5F4F4617570718F38091C00099
:107DF00085FDE5CE8091C00085FFF8CFE0CE81E023
:107E00000E94C73C67CE0E94763C803209F08CCE3F
:107E10008091C00085FFFCCFF092C6008091C00029
:107E200085FFFCCFE092C6008091C00085FFFCCFAB
:107E3000D092C6008091C00085FFFCCFC092C600E2
:107E40008091C00085FFFCCFB092C60043CEE09188
:107E50000601F091070194918091C00085FFFCCF4D
:107E60009093C6009CCF80E10E94C73C33CE0E9415
:107E7000763C0E94763C182F0E94763C112309F430
:107E800083C0113009F484C08FE00E94C73C22CE29
:107E900080910C02816080930C02E5CE80910C02EF
:107EA000816080930C0259CF809107018823880F4D
:107EB000880B8A2180930B02809106019091070123
:107EC000880F991F90930701809306018091080203
:107ED00080FF09C080910802909109020196909359
:107EE000090280930802F894F999FECF1127E091D6
:107EF0000601F0910701C8E0D1E08091080290915D
:107F00000902103091F40091570001700130D9F34B
:107F100003E000935700E89500915700017001308D
:107F2000D9F301E100935700E89509901990009169
:107F3000570001700130D9F301E000935700E89534
:107F40001395103498F011270091570001700130FB
:107F5000D9F305E000935700E895009157000170B0
:107F60000130D9F301E100935700E895329602976A
:107F700009F0C7CF103011F00296E5CF112480919F
:107F8000C00085FFB9CEBCCE8EE10E94C73CA2CD19
:0C7F900085E90E94C73C9ECDF894FFCF0D
:027F9C00800063
:040000030000780081
:00000001FF