:100000000C94DA000C9456050C942F050C94020104
:100010000C9402010C9402010C9402010C94020154
:100020000C9402010C947D050C9402010C940201C5
:100030000C9402010C9402010C9402010C94020134
:100040000C94E5040C9402010C94B3040C948D04FC
:100050000C9402010C9402010C9402010C94020114
:100060000C94DE050C94020100407A10F35A00A0B3
:10007000724E18090010A5D4E80000E87648170071
:1000800000E40B54020000CA9A3B000000E1F505B1
:10009000000080969800000040420F000000A086FB
:1000A00001000000102700000000E803000000002D
:1000B0006400000000000A000000000001000000D1
:1000C00000002C76D888DC674F0823DFC1DFAE59EB
:1000D000E1B1B796E5E3E453C63AE651997696E87E
:1000E000E6C28426EB898C9B62ED407C6FFCEFBC02
:1000F0009C9F40F2BAA56FA5F490055A2AF75C932D
:100100006B6CF9676DC11BFCE0E40D47FEF520E662
:10011000B500D0ED902E0300943577050080841E45
:10012000080000204E0A000000C80C333333330FA0
:10013000986E12831141EF8D2114893BE65516CF3D
:10014000FEE6DB18D1844B381BF77C1D901DA4BB49
:10015000E424203284725E228100C9F124ECA1E5FE
:100160003D2700000000240027002A0000000000B6
:10017000250028002B0004040404040404040202E3
:100180000202020203030303030301020408102016
:100190004080010204081020010204081020000021
:1001A0000008000201000003040700000000000036
:1001B00000000C0711241FBECFEFD8E0DEBFCDBF7B
:1001C00011E0A0E0B1E0EAEFF2E202C005900D928A
:1001D000A634B107D9F722E0A6E4B1E001C01D9230
:1001E000A739B207E1F710E0CAEDD0E004C02197CB
:1001F000FE010E94690FC93DD107C9F70E9445075A
:100200000C947B110C940000CF92DF92EF92FF923E
:100210000F931F93CF93DF936C017A018B01C0E0A2
:10022000D0E0CE15DF0589F0D8016D918D01D601A2
:10023000ED91FC910190F081E02DC6010995892B8B
:1002400011F47E0102C02196ECCFC701DF91CF915E
:100250001F910F91FF90EF90DF90CF900895CF9373
:10026000DF93FC0144815581608171818AEE91E0C8
:100270000E940401EC0142E050E06EE271E08AEE7F
:1002800091E00E9404018C0F9D1FDF91CF91089592
:100290008091E4019091E50101969093E5018093AE
:1002A000E4010895FC01538D448D252F30E0842F07
:1002B00090E0821B930B541710F0CF96089501978E
:1002C0000895FC01918D828D981761F0828DDF0178
:1002D000A80FB11D5D968C91928D9F5F9F73928F39
:1002E00090E008958FEF9FEF0895FC01918D828D2E
:1002F000981731F0828DE80FF11D858D90E00895FB
:100300008FEF9FEF0895FC01918D228D892F90E052
:10031000805C9F4F821B91098F73992708958AEE05
:1003200091E00E94830121E0892B09F420E0822FD3
:100330000895FC01848DDF01A80FB11DA35ABF4FA2
:100340002C91848D90E001968F739927848FA689D4
:10035000B7892C93A089B1898C9180648C93938DFB
:10036000848D981306C00288F389E02D80818F7DEB
:1003700080830895EF92FF920F931F93CF93DF93A3
:10038000EC0181E0888F9B8D8C8D981305C0E889E6
:10039000F989808185FD24C0F62E0B8D10E00F5F5A
:1003A0001F4F0F731127E02E8C8DE8120CC00FB673
:1003B00007FCFACFE889F989808185FFF5CFCE0166
:1003C0000E949901F1CF8B8DFE01E80FF11DE35AD8
:1003D000FF4FF0820B8FEA89FB898081806207C022
:1003E000EE89FF896083E889F98980818064808350
:1003F00081E090E0DF91CF911F910F91FF90EF90FE
:100400000895CF93DF93EC01888D8823C9F0EA89A2
:10041000FB89808185FD05C0A889B9898C9186FDFD
:100420000FC00FB607FCF5CF808185FFF2CFA889FA
:10043000B9898C9185FFEDCFCE010E949901E7CF5C
:10044000DF91CF91089580E090E0892B29F00E9400
:100450008F0181110C940000089590E0FC01E25698
:10046000FE4F3491FC01E657FE4F2491FC01EA58FF
:10047000FE4FE491EE2309F43BC0332339F13330CE
:1004800091F038F43130A9F0323001F584B58F7D28
:1004900012C0373091F03830A1F03430B9F4809187
:1004A00080008F7D03C0809180008F7780938000D3
:1004B0000DC084B58F7784BD09C08091B0008F775F
:1004C00003C08091B0008F7D8093B000F0E0EE0F0C
:1004D000FF1FE459FE4FA591B4918FB7F894EC91AA
:1004E000611103C020952E2301C02E2B2C938FBFAA
:1004F0000895CF93DF9390E0FC01E657FE4F2491DF
:10050000FC01EA58FE4F8491882361F190E0880F46
:10051000991FFC01EE59FE4FC591D491FC01E4599D
:10052000FE4FA591B491611109C09FB7F8948881DD
:10053000209582238883EC912E230BC0623061F4D6
:100540009FB7F8943881822F809583238883EC911C
:100550002E2B2C939FBF06C08FB7F894E8812E2BCB
:1005600028838FBFDF91CF9108958E3008F08E5091
:100570008770806480937C0080917A00806480938F
:100580007A0080917A0086FDFCCF809178002091DE
:10059000790090E0922B08952FB7F8946091C301F1
:1005A0007091C4018091C5019091C6012FBF08953B
:1005B000089585ED8093BC008091BC0084FDFCCF44
:1005C00010928F01089540916901262F30E0240F89
:1005D000311D21323105DCF420918F012430C9F422
:1005E000FC0180E090E0861758F430916901219178
:1005F000DC01A95BBE4FA30FB11D2C930196F3CF75
:1006000080916901680F6093690180E0089581E03D
:10061000089582E0089508958FEF9FEF08958FEF7A
:100620009FEF08958091460190E091958195910901
:100630000895CF93DF9300D0CDB7DEB7CB01642F01
:1006400049835A830E94E3024981842F5A81952F5E
:100650000F900F90DF91CF910895CF93DF931F926A
:10066000CDB7DEB7698361E0CE0101960E94E30257
:1006700081E090E00F90DF91CF910895089580E0A0
:1006800090E00895CF92DF92EF92FF920F931F9325
:10069000CF93DF93EC016A017B010E94CC020881B9
:1006A00019812A813B81601771078207930720F423
:1006B000188219821A821B82088119812A813B8142
:1006C000DC01CB01801B910BA20BB30B21E08C153D
:1006D0009D05AE05BF0508F420E0822FDF91CF9184
:1006E0001F910F91FF90EF90DF90CF900895CF93DF
:1006F000C82F61E00E947902EC2FF0E0E256FE4F35
:10070000E491E33019F150F4E130D1F0E230E1F559
:1007100084B5806284BD80E888BD3BC0E73011F1BC
:10072000E83049F1E43081F5809180008062809367
:10073000800080E890E090938B0080938A0029C02D
:1007400084B5806884BD80E887BD23C08091800027
:1007500080688093800080E890E090938900809387
:10076000880017C08091B00080688093B00080E856
:100770008093B3000EC08091B00080628093B0007F
:1007800080E88093B40005C061E08C2FCF910C9479
:100790002D02CF9108950F931F93CF93DF93EC0118
:1007A00088819981009729F02A813B812617370794
:1007B00088F48B016F5F7F4F0E949C10009761F05F
:1007C000998388831B830A832C813D81232B11F419
:1007D000FC01108281E001C080E0DF91CF911F9188
:1007E0000F910895EF92FF920F931F93CF93DF9392
:1007F000FC01248135816115710511F480E019C077
:1008000041155105A9F07B01EC018A01020F131F6C
:10081000B8010E94CB03882389F3288139818C8118
:100820009D81B701820F931F0E9474111D830C8359
:1008300081E0DF91CF911F910F91FF90EF9008958C
:10084000EF92FF920F931F93CF93DF93CDB7DEB755
:1008500064970FB6F894DEBF0FBECDBF7C01CB010D
:10086000BA018E010F5F1F4F22E044E00E941D0A73
:10087000BC01FC0101900020E9F73197AF01481B52
:10088000590BC7010E94F20364960FB6F894DEBFBD
:100890000FBECDBFDF91CF911F910F91FF90EF90D1
:1008A00008956115710551F0FB0101900020E9F7F1
:1008B0003197AF01461B570B0C94F20380E008956B
:1008C000EF92FF920F931F93CF93DF93EC017B0185
:1008D0008A01BA010E94CB032881398181110DC0A0
:1008E0002115310519F0C9010E94041019821882DE
:1008F0001D821C821B821A8206C01D830C83B701D5
:10090000C9010E947411CE01DF91CF911F910F9107
:10091000FF90EF9008950E9466111F920F920FB6FC
:100920000F9211242F933F934F935F936F937F9375
:100930008F939F93AF93BF93EF93FF938AEE91E0D2
:100940000E949901FF91EF91BF91AF919F918F917B
:100950007F916F915F914F913F912F910F900FBEBB
:100960000F901F9018951F920F920FB60F9211249F
:100970002F938F939F93EF93FF93E091FA01F09160
:10098000FB018081E0910002F091010282FD12C022
:100990009081809103028F5F8F73209104028217F0
:1009A00051F0E0910302F0E0E651FE4F958F809305
:1009B000030201C08081FF91EF919F918F912F9150
:1009C0000F900FBE0F901F9018951F920F920FB6A9
:1009D0000F9211242F933F938F939F93AF93BF93C5
:1009E0008091C3019091C401A091C501B091C6014D
:1009F0003091C20123E0230F2D3720F40196A11D71
:100A0000B11D05C026E8230F0296A11DB11D20933C
:100A1000C2018093C3019093C401A093C501B09318
:100A2000C6018091BE019091BF01A091C001B0911B
:100A3000C1010196A11DB11D8093BE019093BF011C
:100A4000A093C001B093C101BF91AF919F918F91CD
:100A50003F912F910F900FBE0F901F9018951F92EE
:100A60000F920FB60F9211242F933F934F935F93E2
:100A70006F937F938F939F93AF93BF93EF93FF9366
:100A8000E0910201F09103010995FF91EF91BF916F
:100A9000AF919F918F917F916F915F914F913F9116
:100AA0002F910F900FBE0F901F9018951F920F92CD
:100AB0000FB60F9211242F933F934F935F936F9331
:100AC0007F938F939F93AF93BF93EF93FF93E091A7
:100AD0000001F09101010995FF91EF91BF91AF9154
:100AE0009F918F917F916F915F914F913F912F9146
:100AF0000F900FBE0F901F9018951F920F920FB678
:100B00000F9211242F933F934F935F936F937F9393
:100B10008F939F93AF93BF93EF93FF938091BC010B
:100B20009091BD018093B2008091B8019091B9017C
:100B3000A091BA01B091BB010196A11DB11D809396
:100B4000B8019093B901A093BA01B093BB01809111
:100B5000B8019091B901A091BA01B091BB01809107
:100B6000B70181111AC081E08093B7018091B8016B
:100B70009091B901A091BA01B091BB018093B801E5
:100B80009093B901A093BA01B093BB01E091B50174
:100B9000F091B60109951092B701FF91EF91BF91C5
:100BA000AF919F918F917F916F915F914F913F9105
:100BB0002F910F900FBE0F901F9018951F920F92BC
:100BC0000FB60F9211242F933F934F935F936F9320
:100BD0007F938F939F93AF93BF93EF93FF938091F6
:100BE000B900887F803609F49CC068F5883209F422
:100BF0005BC090F4803109F454C038F4882309F4C0
:100C0000F6C0883009F44DC0F6C0883109F44CC0F4
:100C1000803209F45DC0EFC0803409F468C048F444
:100C2000803309F455C0883309F0E5C080938E0104
:100C3000D8C0803509F44FC0883509F45DC08834C8
:100C400009F0D9C0D6C0883909F4C7C0A8F48837DC
:100C500009F467C038F4883609F463C0803709F4B2
:100C600060C0C9C0883809F4B8C0803909F45FC0D1
:100C7000803809F0C0C05BC0803B09F486C038F4FE
:100C8000803A09F466C0883A09F47FC0B4C0803C59
:100C900009F4A7C0883C09F4A4C0883B09F48AC0C1
:100CA000AAC08091B40110C09091B3018091B201AB
:100CB000981770F5E091B30181E08E0F8093B30136
:100CC000F0E0EE56FE4F80818093BB0085EC86C03D
:100CD00080938E018EC0E091B30181E08E0F8093EE
:100CE000B3018091BB00F0E0EE56FE4F80839091FF
:100CF000B3018091B2016EC0E091B30181E08E0F2B
:100D00008093B3018091BB00F0E0EE56FE4F8083EC
:100D10008091910181116DC081E08093900184EAFE
:100D200061C083E080938F0110928D01CFCF8091BD
:100D30008D01803208F051C0E0918D0181E08E0F6D
:100D400080938D018091BB00F0E0E359FE4F8083DA
:100D5000BDCF85EC8093BC0010928F0180918D01F6
:100D6000803230F4E0918D01F0E0E359FE4F1082C3
:100D700060918D0170E0E0916B01F0916C018DE666
:100D800091E0099510928D0136C084E080938F0127
:100D900010926A0110926901E0916701F091680177
:100DA000099580916901811105C081E080936901F5
:100DB00010924701E0916A0181E08E0F80936A01F1
:100DC000F0E0E95BFE4F80818093BB0090916A0167
:100DD00080916901981708F479CF85E88093BC0069
:100DE0000AC085EC8093BC0010928F0104C0109261
:100DF0008E010E94D902FF91EF91BF91AF919F9117
:100E00008F917F916F915F914F913F912F910F90B3
:100E10000FBE0F901F901895EAEEF1E01382128238
:100E200088EE93E0A0E0B0E084839583A683B78347
:100E30002EE031E03183208325EC30E035872487B4
:100E400024EC30E03787268720EC30E0318B208B94
:100E500021EC30E0338B228B22EC30E0358B248B7D
:100E600026EC30E0378B268B118E128E138E148E6B
:100E7000E7E8F2E01382128284839583A683B78326
:100E800080E291E0918380830895CF93DF93CDB783
:100E9000DEB76A970FB6F894DEBF0FBECDBF789469
:100EA00084B5826084BD84B5816084BD85B582606F
:100EB00085BD85B5816085BD80916E008160809320
:100EC0006E00109281008091810082608093810089
:100ED0008091810081608093810080918000816099
:100EE000809380008091B10084608093B1008091F4
:100EF000B00081608093B00080917A00846080931C
:100F00007A0080917A00826080937A0080917A00E2
:100F1000816080937A0080917A00806880937A0063
:100F20001092C10061E08DE00E94790262E083E0EE
:100F30000E94790288E491E090930301809302017A
:100F400080916900837F886080936900E99A61E0FD
:100F500084E00E94790261E085E00E94790261E00C
:100F600086E00E94790261E087E00E94790261E0F8
:100F700088E00E94790261E089E00E94790261E0E4
:100F80008AE00E94790261E08BE00E94790261E0D0
:100F90008CE00E94790261E084E00E942D0260E012
:100FA00085E00E942D0260E087E00E942D0260E053
:100FB00088E00E942D0260E08BE00E942D0261E03B
:100FC0008CE00E942D02E091FA01F091FB0182E099
:100FD0008083E091F601F091F7011082E091F80131
:100FE000F091F90180E1808310920202E091FE010C
:100FF000F091FF0186E08083E091FC01F091FD011A
:10100000808180618083E091FC01F091FD0180810D
:1010100088608083E091FC01F091FD01808180680F
:101020008083E091FC01F091FD0180818F7D8083C0
:10103000CC24C394D12C812C94E0992EA12CB12CDA
:10104000CE0101967C011E8A1D8A188E1F8A1A8E77
:10105000198E40E050E060E371E0CE0145960E94B9
:10106000600448E750E060E070E086EE91E00E94A6
:1010700042038823B9F08091E4019091E50108973B
:101080003CF0D092E301C092E20186E00E94770337
:101090000E94CC026093E6017093E7018093E8011F
:1010A0009093E90144E650E060E070E08EED91E05D
:1010B0000E944203882309F4B7C08EE00E94B50263
:1010C0003C018FE00E94B5028C0128E833E1D30196
:1010D0000E94620FA50194010E94F70DB901330F20
:1010E000880B990B0E94DA0C2B013C0128E833E1B4
:1010F000D8010E94620FA50194010E94F70DB90169
:10110000330F880B990B0E94DA0C9B01AC01C301D1
:10111000B2010E94EB0E2DEC3CEC4CEC5DE30E9426
:101120007E0E20E030E040E45FE30E94EB0E20E022
:1011300030E040E251E40E94390D2B013C01209146
:10114000DA013091DB014091DC015091DD010E9418
:101150005D0F18166CF41092D9011092D8014092CC
:10116000D4015092D5016092D6017092D7014AC045
:101170000091D8011091D9010115110551F40E9477
:10118000CC026093D0017093D1018093D2019093EF
:10119000D3010F5F1F4F1093D9010093D801A30112
:1011A00092016091D4017091D5018091D601909106
:1011B000D7010E947E0E23E333E343EB5EE30E94FC
:1011C0005D0F87FD1FC08091E2019091E301892BA3
:1011D000C9F402301105B4F00E94CC020091D00194
:1011E0001091D1012091D2013091D301DC01CB01CA
:1011F000801B910BA20BB30B8C3D9540A105B10553
:1012000008F413C14092DA015092DB016092DC01D4
:101210007092DD010E94CC026093DE017093DF01C9
:101220008093E0019093E1018091E2019091E301CC
:10123000019771F50E94CC020091C8011091C9017B
:101240002091CA013091CB01DC01CB01801B910BB5
:10125000A20BB30B2091C701211112C061E08AE0FB
:101260000E942D020E94CC026093C8017093C901B4
:101270008093CA019093CB0181E08093C7012BC07A
:1012800080349747AB41B10530F160E08AE021C07E
:101290000E94CC020091C8011091C9012091CA019D
:1012A0003091CB01DC01CB01801B910BA20BB30B66
:1012B0001092C7018C3D9540A105B10560F060E03A
:1012C0008AE00E942D0260E089E00E942D0260E029
:1012D00086E00E942D0248EE53E060E070E08CEC66
:1012E00091E00E944203882309F498C00091E40130
:1012F0001091E5010830110524F41092E3011092D9
:10130000E20161E371E0CE0145960E945104B8010B
:10131000110F880B990B0E94DA0C2AE939E941E098
:1013200051E40E94EB0E870122E044E00E941D0A76
:10133000FC0101900020E9F73197AF01481B590BE0
:10134000BC01CE0145960E94F20366E371E0CE0136
:1013500045960E9451046BE371E0CE0145960E94D0
:1013600051044AE0B7018091E4019091E5010E94A7
:101370003D0AF70101900020E9F73197AF014E19BE
:101380005F09B701CE0145960E94F20368E371E060
:10139000CE0145960E945104CE0145960E942F0130
:1013A0001092E5011092E40144E050E06DE371E039
:1013B000CE0145960E9460044091DA015091DB0114
:1013C0006091DC017091DD01CE0145960E94200400
:1013D0006BE371E0CE0145960E9451044091D40127
:1013E0005091D5016091D6017091D701CE014596FB
:1013F0000E94200462E471E0CE0145960E945104EF
:10140000CE0145960E942F010E94CC026093CC0130
:101410007093CD018093CE019093CF018D899E89E9
:101420000E9404100E9423020ECED092E301C092CB
:10143000E20189E00E947703E5CEEF920F931F93BC
:10144000CF93DF93E80147FD02C034E001C034E1EF
:10145000E42F440FFF0BF7FF03C0F195E195F1096D
:10146000E32E022F2E2FAE010E94620ACE01DF91E1
:10147000CF911F910F91EF900895BB274A3031F41F
:10148000992322F4BDE2909581959F4F0C94490ACF
:10149000BB27FB015527AA27880F991FAA1FA4174E
:1014A00010F0A41B83955051B9F7A05DAA3308F042
:1014B000A95DA193009779F7B111B1931192CB0176
:1014C0000C94C80C4F925F926F927F929F92AF9252
:1014D000BF92CF92DF92EF92FF920F931F93CF9321
:1014E000DF93CDB7DEB729970FB6F894DEBF0FBEF6
:1014F000CDBF6A01122FB02E2BE3201720F0FF245E
:10150000F394F00E02C0BCE3FB2E0F2D27E0AE01DA
:101510004F5F5F4F0E94F00BAC018981982F99704B
:10152000913031F0E1FC06C0E0FE06C090E205C05B
:101530009DE203C09BE201C090E0EE2DE07183FFCD
:101540003CC0911102C083E001C084E0811718F40F
:10155000212F281B01C020E0E1110BC0F601822FD2
:1015600030E2882319F031938150FBCFC20ED11C99
:1015700020E0992329F0D6019C93F60131966F0162
:10158000C6010396E2FE0AC03EE4D6013C9341E464
:1015900011964C93119712963C9306C03EE6F601C5
:1015A000308341E641833283FC01322F40E2332312
:1015B00009F442C041933150FACF82FF44C09111E7
:1015C00002C083E001C084E0811718F4212F281B9A
:1015D00001C020E0E1110BC0F601822F30E2882328
:1015E00019F031938150FBCFC20ED11C20E099231A
:1015F00029F0D6019C93F60131966F01C60103963E
:10160000E2FE0BC039E4D6013C933EE411963C93D4
:10161000119736E412963C9307C039E6F601308301
:101620003EE6318336E63283FC01322F40E233233B
:1016300019F041933150FBCFFC01E20FF11D1082F4
:101640008EEF9FEFB7C0F1E0911101C0F0E06F2F76
:1016500070E01416150624F49A012F5F3F4F02C064
:1016600021E030E0260F371FBB2029F06B2D70E002
:101670006F5F7F4F02C060E070E0260F371F612F61
:1016800070E0261737071CF4121B212F01C020E041
:101690003E2D387159F4D601322F60E2332319F010
:1016A0006D933150FBCFC20ED11C20E0FF2331F0EF
:1016B000D6019C93B6016F5F7F4F6B01E1110BC0A8
:1016C000F601922F30E3992319F031939150FBCF1B
:1016D000C20ED11C20E09F2D940F3A81782F70719B
:1016E000A72E84FF03C0313309F49150191624F456
:1016F000993018F098E001C091E0E42F852F57FF52
:1017000002C0E0E080E06E2F782FE0E0F0E0AEE293
:101710009A2E3A01691A71082A01461A570A0B2DA6
:1017200010E01195019511096F3F8FEF780729F4AB
:10173000D6019C92C60101966C014617570784F0AA
:10174000661677066CF47F01E40CF51CA1E0B0E0AE
:10175000AC0FBD1FEA0EFB1ED7011196BC9002C054
:1017600090E3B92E615071093196C60101967C0152
:101770006017710724F0D601BC926C01D5CF6417B5
:10178000750741F4363320F4353321F4A11002C03B
:1017900081E3B82EF601B082F701822F90E2882310
:1017A00019F091938150FBCFF701E20FF11D1082E8
:1017B00080E090E029960FB6F894DEBF0FBECDBF53
:1017C000DF91CF911F910F91FF90EF90DF90CF901D
:1017D000BF90AF909F907F906F905F904F900895D3
:1017E000283008F027E03327DA01990F311D87FDF3
:1017F000916000966105710539F432602E5F3D936A
:1018000030E32A95E1F708959F3F30F08038710565
:10181000610509F03C5F3C5F3D93913008F08068C2
:10182000911DDF93CF931F930F93FF92EF92192F88
:10183000987F9695E92F96959695E90FFF27EE5399
:10184000FF4F99273327EE24FF24A701E7010590D6
:101850000894079428F4360FE71EF81E491F511DFF
:10186000660F771F881F991F0694A1F705900794AC
:1018700028F4E70EF81E491F561FC11D770F881F59
:10188000991F661F0694A1F70590079428F4F80E97
:10189000491F561FC71FD11D880F991F661F771F2D
:1018A0000694A1F70590079420F4490F561FC71F0F
:1018B000D81F990F661F771F881F0694A9F7849178
:1018C0001095177041F0D695C79557954795F794A1
:1018D000E7941A95C1F7E8E6F0E068941590159141
:1018E00035916591959105907FE27395E118F10A24
:1018F000430B560BC90BD009C0F7E10CF11E431F77
:10190000561FC91FD01D7EF4703311F48A95E6CF9F
:10191000E894015030F0080F0AF40027021708F489
:10192000202F2395022F7A3328F079E37D932A958F
:10193000E9F710C07D932A9589F6069497956795E7
:10194000379517951794E118F10A430B560BC90BFD
:10195000D00998F023957E9173957A3308F070E35F
:101960007C932013B8F77E9170617D9330F083955E
:1019700071E37D9370E32A95E1F71124EF90FF90D6
:101980000F911F91CF91DF91992787FD9095089531
:10199000DC01FC01672F71917723E1F7329704C0D6
:1019A0007C916D9370836291AE17BF07C8F3089561
:1019B000E89409C097FB3EF49095809570956195E9
:1019C0007F4F8F4F9F4F9923A9F0F92F96E9BB279F
:1019D0009395F695879577956795B795F111F8CF1B
:1019E000FAF4BB0F11F460FF1BC06F5F7F4F8F4F86
:1019F0009F4F16C0882311F096E911C0772321F07C
:101A00009EE8872F762F05C0662371F096E8862F13
:101A100070E060E02AF09A95660F771F881FDAF76A
:101A2000880F9695879597F90895990F0008550F97
:101A3000AA0BE0E8FEEF16161706E807F907C0F054
:101A400012161306E407F50798F0621B730B840B5C
:101A5000950B39F40A2661F0232B242B252B21F436
:101A600008950A2609F4A140A6958FEF811D811DD6
:101A700008950E944C0D0C94BD0D0E94AF0D38F0DE
:101A80000E94B60D20F0952311F00C94A60D0C9435
:101A9000AC0D11240C94F10D0E94CE0D70F3959FA6
:101AA000C1F3950F50E0551F629FF001729FBB2755
:101AB000F00DB11D639FAA27F00DB11DAA1F649FF1
:101AC0006627B00DA11D661F829F2227B00DA11DA4
:101AD000621F739FB00DA11D621F839FA00D611D2A
:101AE000221F749F3327A00D611D231F849F600D4B
:101AF000211D822F762F6A2F11249F5750409AF074
:101B0000F1F088234AF0EE0FFF1FBB1F661F771FFF
:101B1000881F91505040A9F79E3F510580F00C94CA
:101B2000A60D0C94F10D5F3FE4F3983ED4F3869537
:101B300077956795B795F795E7959F5FC1F7FE2B6A
:101B4000880F911D9695879597F9089597F99F6746
:101B500080E870E060E008959FEF80EC0895002435
:101B60000A941616170618060906089500240A9402
:101B700012161306140605060895092E0394000C88
:101B800011F4882352F0BB0F40F4BF2B11F460FF17
:101B900004C06F5F7F4F8F4F9F4F089557FD905840
:101BA000440F551F59F05F3F71F04795880F97FB21
:101BB000991F61F09F3F79F08795089512161306DB
:101BC0001406551FF2CF4695F1DF08C0161617060A
:101BD0001806991FF1CF869571056105089408953F
:101BE000E894BB2766277727CB0197F90895052E40
:101BF00097FB1EF400940E940E0E57FD07D00E9422
:101C00004D0E07FC03D04EF40C940E0E50954095EB
:101C1000309521953F4F4F4F5F4F08959095809598
:101C2000709561957F4F8F4F9F4F08952F923F92F0
:101C30004F925F926F927F928F929F92AF92BF92DC
:101C4000CF92DF92EF92FF920F931F93CF93DF9388
:101C5000CDB7DEB7CA1BDB0B0FB6F894DEBF0FBEE5
:101C6000CDBF09942A88398848885F846E847D8432
:101C70008C849B84AA84B984C884DF80EE80FD8034
:101C80000C811B81AA81B981CE0FD11D0FB6F894AA
:101C9000DEBF0FBECDBFED010895A1E21A2EAA1B33
:101CA000BB1BFD010DC0AA1FBB1FEE1FFF1FA2170C
:101CB000B307E407F50720F0A21BB30BE40BF50B09
:101CC000661F771F881F991F1A9469F76095709592
:101CD000809590959B01AC01BD01CF010895A29F15
:101CE000B001B39FC001A39F700D811D1124911DF0
:101CF000B29F700D811D1124911D08955058BB276E
:101D0000AA270E94960E0C94BD0D0E94AF0D38F0CC
:101D10000E94B60D20F039F49F3F19F426F40C947C
:101D2000AC0D0EF4E095E7FB0C94A60DE92F0E9494
:101D3000CE0D58F3BA17620773078407950720F092
:101D400079F4A6F50C94F00D0EF4E0950B2EBA2F55
:101D5000A02D0B01B90190010C01CA01A0011124B1
:101D6000FF27591B99F0593F50F4503E68F11A165D
:101D7000F040A22F232F342F4427585FF3CF4695EE
:101D800037952795A795F0405395C9F77EF41F1610
:101D9000BA0B620B730B840BBAF09150A1F0FF0FDA
:101DA000BB1F661F771F881FC2F70EC0BA0F621FC6
:101DB000731F841F48F4879577956795B795F795B6
:101DC0009E3F08F0B0CF9395880F08F09927EE0F4B
:101DD0009795879508950E94FF0E0C94BD0D0E9463
:101DE000B60D58F00E94AF0D40F029F45F3F29F086
:101DF0000C94A60D51110C94F10D0C94AC0D0E9495
:101E0000CE0D68F39923B1F3552391F3951B550B30
:101E1000BB27AA2762177307840738F09F5F5F4FBD
:101E2000220F331F441FAA1FA9F335D00E2E3AF0FC
:101E3000E0E832D091505040E695001CCAF72BD014
:101E4000FE2F29D0660F771F881FBB1F2617370765
:101E50004807AB07B0E809F0BB0B802DBF01FF2797
:101E600093585F4F3AF09E3F510578F00C94A60DC1
:101E70000C94F10D5F3FE4F3983ED4F3869577958B
:101E80006795B795F7959F5FC9F7880F911D969550
:101E9000879597F90895E1E0660F771F881FBB1FAC
:101EA000621773078407BA0720F0621B730B840B59
:101EB000BA0BEE1F88F7E09508950E94150D08F4FF
:101EC0008FEF08950E946F0EB7FF0895821B930B4A
:101ED0000895EE0FFF1F0590F491E02D0994CF9324
:101EE000DF938230910510F482E090E0E09195025A
:101EF000F091960220E030E0C0E0D0E0309711F1A0
:101F00004081518148175907C0F04817590761F4BB
:101F100082819381209719F09B838A832BC09093B1
:101F200096028093950226C02115310519F04217BB
:101F3000530718F49A01BE01DF01EF010280F3811B
:101F4000E02DDCCF2115310509F1281B390B243098
:101F5000310590F412968D919C911397611571053E
:101F600021F0FB019383828304C0909396028093B7
:101F70009502FD01329644C0FD01E20FF31F8193EB
:101F80009193225031092D933C933AC020919302B2
:101F900030919402232B41F42091060130910701E6
:101FA0003093940220939302209104013091050113
:101FB0002115310541F42DB73EB7409108015091EC
:101FC0000901241B350BE0919302F0919402E21772
:101FD000F307A0F42E1B3F0B2817390778F0AC014C
:101FE0004E5F5F4F2417350748F04E0F5F1F509329
:101FF0009402409393028193919302C0E0E0F0E059
:10200000CF01DF91CF9108950F931F93CF93DF936B
:10201000009709F48CC0FC01329713821282009160
:102020009502109196020115110581F420813181EC
:10203000820F931F20919302309194022817390741
:1020400079F5F0939402E093930271C0D80140E0D7
:1020500050E0AE17BF0750F412962D913C911397A4
:10206000AD012115310509F1D901F3CF9D01DA0147
:102070003383228360817181860F971F82179307B4
:1020800069F4EC0128813981260F371F2E5F3F4FFD
:10209000318320838A819B8193838283452B29F41A
:1020A000F0939602E093950242C01396FC93EE9350
:1020B0001297ED01499159919E01240F351FE217A6
:1020C000F30771F480819181840F951F0296119618
:1020D0009C938E938281938113969C938E931297F7
:1020E000E0E0F0E0D80112968D919C911397009753
:1020F00019F0F8018C01F6CF8D919C9198012E5F1B
:102100003F4F820F931F2091930230919402281722
:10211000390769F4309729F41092960210929502CB
:1021200002C0138212821093940200939302DF91F3
:10213000CF911F910F910895A0E0B0E0E2EAF0E1A5
:102140000C941A0EEC01009721F4CB010E946F0F42
:10215000B8C0FC01E60FF71F9C0122503109E217BD
:10216000F30708F4ACC0D9010D911C911197061723
:102170001707B0F00530110508F49FC0C801049797
:102180008617970708F499C002501109061B170B10
:10219000019311936D937C93CF010E9404108DC025
:1021A0005B01A01AB10A4C01800E911EA09195020C
:1021B000B091960240E050E0E12CF12C109709F428
:1021C0004AC0A815B905D1F56D907C9011976301AF
:1021D00082E0C80ED11CCA14DB0480F1A3014A19A5
:1021E0005B096A0182E0C80ED11C1296BC9012975E
:1021F0001396AC91B5E0CB16D10440F0B282A38324
:1022000051834083D9016D937C930AC00E5F1F4FA9
:10221000C301800F911FF90191838083EB2DFA2F69
:10222000E114F10431F0D7011396FC93EE93129769
:1022300044C0F0939602E09395023FC08D919C912B
:1022400011974817590708F4AC017D0112960D90BB
:10225000BC91A02DB3CF80919302909194028815E8
:102260009905E1F446175707C8F48091040190914D
:102270000501009741F48DB79EB740910801509138
:102280000901841B950BE817F907C8F4F093940231
:10229000E0939302F901718360830FC0CB010E9428
:1022A0006F0F7C01009759F0A801BE010E946B11CD
:1022B000CE010E940410C70104C0CE0102C080E01C
:1022C00090E0CDB7DEB7EEE00C94360E81E090E002
:1022D000F8940C947B11FB01DC0102C001900D927B
:1022E00041505040D8F70895FB01DC0101900D9258
:0A22F0000020E1F70895F894FFCFF5
:1022FA00D802D80200009702800000000000BA014C
:10230A00040152010102830161017501000000000C
:10231A002D0319033F030B0312030F030C030D0ACA
:10232A0000464C573A004C002020202000505245CD
:06233A003A004D202000D6
:107800000C94343C0C94513C0C94513C0C94513CE1
:107810000C94513C0C94513C0C94513C0C94513CB4
:107820000C94513C0C94513C0C94513C0C94513CA4
:107830000C94513C0C94513C0C94513C0C94513C94
:107840000C94513C0C94513C0C94513C0C94513C84
:107850000C94513C0C94513C0C94513C0C94513C74
:107860000C94513C0C94513C11241FBECFEFD8E036
:10787000DEBFCDBF11E0A0E0B1E0ECE9FFE702C060
:1078800005900D92A230B107D9F712E0A2E0B1E065
:1078900001C01D92AD30B107E1F70E942D3D0C945F
:1078A000CC3F0C94003C982F959595959595959582
:1078B000905D8F708A307CF0282F295A8091C0000B
:1078C00085FFFCCF9093C6008091C00085FFFCCF60
:1078D0002093C6000895282F205DF0CF982F809127
:1078E000C00085FFFCCF9093C6000895EF92FF92F1
:1078F0000F931F93EE24FF2487018091C00087FD22
:1079000017C00894E11CF11C011D111D81E4E8164B
:1079100082E4F8068FE0080780E0180770F3E09132
:107920000401F091050109958091C00087FFE9CF1E
:107930008091C6001F910F91FF90EF9008950E94D3
:10794000763C982F8091C00085FFFCCF9093C600B5
:1079500091362CF490330CF09053892F089597555D
:10796000892F08951F930E949F3C182F0E949F3CCF
:107970001295107F810F1F9108951F93182F882350
:1079800021F00E94763C1150E1F71F9108951F935A
:10799000182F0E94763C803249F0809103018F5F5E
:1079A000809303018530C1F01F9108958091C0003C
:1079B00085FFFCCF84E18093C6008091C00085FFE5
:1079C000FCCF1093C6008091C00085FFFCCF80E102
:1079D0008093C6001F910895E0910401F091050184
:1079E00009951F9108950E94763C803241F0809164
:1079F00003018F5F80930301853081F008958091AA
:107A0000C00085FFFCCF84E18093C6008091C00058
:107A100085FFFCCF80E18093C6000895E0910401CA
:107A2000F09105010995089540E951E08823A1F0FE
:107A30002D9A28EE33E0FA013197F1F721503040CA
:107A4000D1F72D9828EE33E0FA013197F1F7215064
:107A50003040D1F7815061F708953F924F925F9285
:107A60006F927F928F929F92AF92BF92CF92DF924E
:107A7000EF92FF920F931F93CF93DF93000080E16B
:107A80008093C4001092C50088E18093C10086E015
:107A90008093C2005098589A259A81E00E94143D24
:107AA00024E1F22E9EE1E92E85E9D82E0FE0C02ECA
:107AB00010E1B12EAA24A394B1E49B2EA6E58A2E50
:107AC000F2E57F2EE0E26E2E79E4572E63E5462E36
:107AD00050E5352E0E94763C8033B1F18133B9F107
:107AE000803409F46FC0813409F476C0823409F41B
:107AF00085C0853409F488C0803531F1823521F1A3
:107B0000813511F1853509F485C0863509F48DC0BC
:107B1000843609F496C0843709F403C1853709F423
:107B200072C1863709F466C0809103018F5F80932C
:107B30000301853079F6E0910401F0910501099582
:107B40000E94763C803351F60E94F33CC3CF0E94E2
:107B5000763C803249F78091C00085FFFCCFF092DF
:107B6000C6008091C00085FFFCCF9092C600809136
:107B7000C00085FFFCCF8092C6008091C00085FFC9
:107B8000FCCF7092C6008091C00085FFFCCF609250
:107B9000C6008091C00085FFFCCF5092C600809146
:107BA000C00085FFFCCF4092C6008091C00085FFD9
:107BB000FCCF3092C6008091C00085FFFCCFB09210
:107BC000C60088CF0E94763C863808F4BDCF0E945C
:107BD000763C0E94F33C7ECF0E94763C803809F4CC
:107BE0009CC0813809F40BC1823809F43CC1883942
:107BF00009F48FC080E00E94C73C6CCF84E10E94F2
:107C0000BD3C0E94F33C66CF85E00E94BD3C0E94D3
:107C1000F33C60CF0E94763C809306010E94763C44
:107C2000809307010E94F33C55CF0E94763C80333D
:107C300009F41DC183E00E94BD3C80E00E94C73C66
:107C400049CF0E94763C809309020E94763C809343
:107C5000080280910C028E7F80930C020E94763C79
:107C6000853409F415C18091080290910902892B8D
:107C700089F000E010E00E94763CF801E85FFE4FDA
:107C800080830F5F1F4F80910802909109020817AF
:107C9000190788F30E94763C803209F045CF809125
:107CA0000C0280FF01C16091060170910701660F0F
:107CB000771F7093070160930601A0910802B091AD
:107CC00009021097C9F0E8E0F1E09B01AD014E0F09
:107CD0005F1FF999FECF32BD21BD819180BDFA9A17
:107CE000F99A2F5F3F4FE417F50799F76A0F7B1F4B
:107CF00070930701609306018091C00085FFFCCF5F
:107D0000F092C6008091C00085FFFCCFB092C60003
:107D1000E1CE83E00E94C73CDDCE82E00E94C73CFA
:107D2000D9CE0E94763C809309020E94763C8093D3
:107D300008028091060190910701880F991F909386
:107D40000701809306010E94763C853409F4A6C0A1
:107D500080910C028E7F80930C020E94763C8032D0
:107D600009F0B8CE8091C00085FFFCCFF092C6002C
:107D7000609108027091090261157105B9F140E046
:107D800050E080910C02A82FA170B82FB27011C0E2
:107D9000BB2309F45CC0E0910601F0910701319624
:107DA000F0930701E09306014F5F5F4F46175707B7
:107DB000E8F4AA2369F3F999FECF209106013091E6
:107DC000070132BD21BDF89A90B58091C00085FFB2
:107DD000FCCF9093C6002F5F3F4F30930701209355
:107DE00006014F5F5F4F4617570718F38091C00099
:107DF00085FDE5CE8091C00085FFF8CFE0CE81E023
:107E00000E94C73C67CE0E94763C803209F08CCE3F
:107E10008091C00085FFFCCFF092C6008091C00029
:107E200085FFFCCFE092C6008091C00085FFFCCFAB
:107E3000D092C6008091C00085FFFCCFC092C600E2
:107E40008091C00085FFFCCFB092C60043CEE09188
:107E50000601F091070194918091C00085FFFCCF4D
:107E60009093C6009CCF80E10E94C73C33CE0E9415
:107E7000763C0E94763C182F0E94763C112309F430
:107E800083C0113009F484C08FE00E94C73C22CE29
:107E900080910C02816080930C02E5CE80910C02EF
:107EA000816080930C0259CF809107018823880F4D
:107EB000880B8A2180930B02809106019091070123
:107EC000880F991F90930701809306018091080203
:107ED00080FF09C080910802909109020196909359
:107EE000090280930802F894F999FECF1127E091D6
:107EF0000601F0910701C8E0D1E08091080290915D
:107F00000902103091F40091570001700130D9F34B
:107F100003E000935700E89500915700017001308D
:107F2000D9F301E100935700E89509901990009169
:107F3000570001700130D9F301E000935700E89534
:107F40001395103498F011270091570001700130FB
:107F5000D9F305E000935700E895009157000170B0
:107F60000130D9F301E100935700E895329602976A
:107F700009F0C7CF103011F00296E5CF112480919F
:107F8000C00085FFB9CEBCCE8EE10E94C73CA2CD19
:0C7F900085E90E94C73C9ECDF894FFCF0D
:027F9C00800063
:040000030000780081
:00000001FF